S02700004154474D333332445F4750535F70726F6A6563745F313374685F4D617263682E7372656370
S1130000183700203D0100003901000039010000CB
S113001000000000000000000000000000000000DC
S11300200000000000000000000000003901000092
S11300300000000000000000390100003901000048
S113004039010000390100003901000039010000C4
S1130050492900003901000039010000A1430000D2
S11300603901000039010000992D00003901000018
S11300703901000039010000390100003901000094
S11300803901000039010000A132000039010000EB
S11300903901000039010000390100003901000074
S11300A03901000039010000390100003901000064
S11300B00000000010B5064C2378002B07D1054B37
S11300C0002B02D0044800E000BF0123237010BDC0
S11300D0600A00200000000024D10000084B10B585
S11300E0002B03D00749084800E000BF0748036815
S11300F0002B00D110BD064B002BFBD09847F9E72D
S113010000000000640A002024D1000024D1000073
S11301100000000010B5044B9847044B9847044B6B
S11301209847044B984710BDA90500000D10000026
S113013079580000194D0000FEE70000F8B52A4A7E
S11301402A4B9A4211D01A00294B9A420DD2294ABD
S113015003339B1A9B0801339B0000222348224946
S11301608C58845004329A42FAD1234A234B9A423F
S11301700AD2D34321495B1803218B4304339B18D0
S1130180002102C29342FCD11D4AFF211D4B8B4327
S11301909360FD3990235B001B4AD1501B4AD378EE
S11301A00325AB4302242343D370D3780C27BB43EA
S11301B008263343D370164B987B30229043202279
S11301C010439873997BB943314399739A7BAA433B
S11301D022439A730F4A536880210B4353600E4B9A
S11301E098470E4B9847FEE724D1000000000020FA
S11301F0600A002004000020600A00201417002078
S113020000ED00E0000000000070004100500041DB
S1130210004800410040004169780000054B00009F
S113022070B5104A104B5A80C022D205202050606D
S11302300E4B0F4999620F499962506045215C5CED
S113024004252C435C5490615A5C1F38824302435A
S11302505A5413395A5C0E3002405A54064B98478C
S113026070BDC04605410000000C00400044004140
S113027020000240000002C099180000044A136ADA
S113028008210B431362034A034B5A807047C0464C
S11302900004004015410000000C004030B50E4B36
S11302A05022995C0125A94301242143C9B29954E0
S11302B03820195C413A91430D3A114319545121A4
S11302C05A5CAA432243D2B25A541A5C42390A40B5
S11302D011310A431A5430BD0044004110B582B0B4
S11302E0064B9847002300931033054A05490648F6
S11302F0064CA047064B984702B010BD7D02000093
S11303007C0A0020000C0042CC140020651D000073
S11303109D02000030B50E4B5622995C0125A9437D
S113032001242143C9B299543B20195C473A9143B3
S11303300D3A1143195457215A5CAA432243D2B2AD
S11303405A541A5C48390A4011310A431A5430BDD0
S113035000440041044A136A20210B431362034AF8
S1130360034B5A807047C046000400401740000009
S1130370000C004010B5054B98470022044905487D
S1130380054B9847054B984710BDC04655030000E0
S113039000140042C01400202D20000015030000AA
S11303A0F0B5DE4657464E464546E0B5C024E40562
S11303B0802252028423E2502C4BA8202C4A1A504B
S11303C02C4A1A50D0215A5C0425AA435A545A5C28
S11303D00126B24301252A43D2B25A5418395A5C31
S11303E00F27B846BA430D3F3A435A5494229446D1
S11303F08022D203614662500C398A4662508022C0
S1130400D20593461A501C491950D622995CB1431F
S11304102943C9B29954BB215A5C4746BA43904612
S11304200322914642464F463A435A5480221204CC
S1130430904662464746A75042465746E2515A46BE
S11304401A500E4A1A502F301A5CB2432A43D2B2C1
S11304501A545A5CC8380240213002435A543CBCF6
S113046090469946A246AB46F0BDC04600440041C2
S113047000000240010002C0400000C0800000C033
S1130480044A136A80210B431362034A034B5A80C4
S11304907047C0460004004019400000000C0040B2
S11304A010B5044B984704490448054B9847054B3D
S11304B0984710BD81040000001C00421C15002058
S11304C025190000A103000010B50248024B98470B
S11304D010BDC04610E000E00D180000F0B5C6469F
S11304E000B5C024E40580225204A2601A4B802780
S11304F0FF059F621949996262615820195C0422C0
S1130500904691431954195C0126B14301252943AE
S1130510C9B219541C38195C0B329143093A11437E
S1130520195480218904A1609F620D4F9F6261610B
S113053059215C5C424694435C545A5CB2432A435E
S1130540D2B25A541A5C4A390A4051310A431A54F5
S113055004BC9046F0BDC04600440041000100C008
S1130560000200C0064BDA6920210A43DA615A69A5
S113057020310A435A61034A034B5A807047C046EC
S11305800004004006470000000C004010B5034B77
S11305909847034B9847034B984710BD65050000E7
S11305A015230000DD04000070B52F4B9847C022CE
S11305B0D2054023536193602C4B2D499962C0248A
S11305C024069C624625585D0121884358558020A5
S11305D050619060274898629C624724185D884364
S11305E0185580204003506190608020C0059862B7
S11305F0214C9C620E355C5D8C435C558024A403C5
S11306005461946098621D4C9C6201355C5D8C431E
S11306105C558024A4023F3554510C3D5451A8220A
S1130620985017489850D1201A5C8A431A54154B95
S11306309847154B9847154B9847154B9847154BBA
S11306409847154A116A80231B010B431362134A0E
S1130650134B5A80134B9847020013491348144B09
S11306609847144B984770BD85280000004400410A
S11306704000004080000040100000C0200000C086
S1130680020000C021020000DD020000750300002A
S1130690A1040000C9040000000400401B40000045
S11306A0000C00409D320000002C00423415002054
S11306B05D1B00008D050000016002714371009B09
S11306C08360704770B5040016001D00006843681D
S11306D09B68984720684368DB6831009847206826
S11306E043681B682900984770BDF0B583B00400C7
S11306F0019116001D0008AB1F7883681B6898479A
S11307000300012F0BD0002F0CD0022F0DD0A268B4
S11307105768320001992000B84703B0F0BD284360
S1130720C3B2F4E7A843C3B2F1E76840C3B2EEE74B
S1130730F8B5CE46474680B507000D0014001E00EC
S113074008AB1B7809AA12780AA90978013B9D42D3
S113075002DC013A944203DD0CBC90469946F8BD94
S11307602000154B9847C3B29846DB00E41A0123D6
S1130770A3401C00DBB29946BB681B682A004146B3
S1130780380098470300012E0AD0002E0CD0022E08
S11307900DD0BA6854682A0041463800A047DBE708
S11307A04B460343DBB2F4E7A043C3B2F1E74B4645
S11307B04340DBB2EDE7C04685580000F8B50700BA
S11307C00E001C0006AB1D78006843689B6811008E
S11307D0984738684368DB68210098473400013D36
S11307E0EDB2013575193868217843681B6898475C
S11307F00134AC42F7D1F8BDF0B5D64600B582B0AD
S113080007000E0092460068002803D043681B6965
S113081000219847002301935346002B14D102B0C2
S113082004BC9246F0BDBB685D68002322000199B8
S11308303800A8470134E4B2A642F4D1019D013541
S1130840EBB201939A45EAD00024002EEBD1F5E7F0
S113085030B503AC257804796243D218C3689B1879
S1130860013DEDB2013500200C5C1C540130A8425E
S1130870FAD130BD10B504796143C068821853546D
S113088010BD03795943C3689A18505C704700003F
S113089010B584B008240294447901940479009436
S11308A0014CA04704B010BD3107000010B582B060
S11308B004AC24780094024CA04702B010BDC0469A
S11308C0EB06000070B582B004000D0004490091ED
S11308D00021044EB047E560200002B070BDC04660
S11308E000000020B9060000F0B585B004001F0028
S11308F00AAB1D78183000953B0003920291054E17
S1130900B04700953B00039A02992000024CA0478F
S113091005B0F0BD51080000BD07000010B584B05B
S1130920082402943834019440340094014CA047C4
S113093004B010BD31070000F0B583B00400160008
S11309401F0018300191054DA8473B003200019962
S11309502000034CA04703B0F0BDC046750800005A
S1130960C506000010B51830014B984710BDC046AD
S11309708308000010B582B004AC24780094024CC3
S1130980A04702B010BDC046EB060000F0B5D64645
S1130990474680B587B004000391049205930EABDB
S11309A0187880460FAB1F7825000C35104B009348
S11309B040238022290020000E4EB0470097434672
S11309C0059A049928000C4DA847200018304023AC
S11309D080220399094DA847082280212000084B52
S11309E09847200007B00CBC90469A46F0BDC0461C
S11309F014000020B9060000850B0000C5080000A3
S1130A00F90700000160426070470000F8B51F2339
S1130A10034001269E404409E401C023DB059C46B3
S1130A20644466618DB22800024FB847A66128006D
S1130A30B847F8BD21180000F0B583B006000B00DC
S1130A406A46D11D0B700068B37A1F252A001A402C
S1130A500124270097403A005B09DB01C027FF050A
S1130A60BC4663449A61337A2A001A4027009740AF
S1130A703A005B09DB01674663445A61036801225B
S1130A809847337A1D40AC405B09DB01BC466344A4
S1130A909C6103B0F0BD00207047F0B583B0060040
S1130AA00B006A46D11D0B700068B37A1F252A001B
S1130AB01A400124270097403A005B09DB01C02754
S1130AC0FF05BC4663445A61337A2A001A40270062
S1130AD097403A005B09DB01674663445A61036847
S1130AE001229847337A1D40AC405B09DB01BC46C8
S1130AF063449C6103B0F0BD10B50B00072119409D
S1130B00B0231943014B984710BDC0469B0A00000F
S1130B1070B504000E004906490F10231943034D14
S1130B20A8470F2131402000A84770BD9B0A000050
S1130B3010B50B003F21194040231943014B98473E
S1130B4010BDC0469B0A000010B5407A0A21014B33
S1130B50984710BD0D0A000010B5AF21014B98470E
S1130B6010BDC0469B0A000070B506000C00812130
S1130B70034DA84721003000A847200070BDC0469F
S1130B809B0A0000F8B5040017001E0006AB1D7890
S1130B90254A264B984727726672A5722000244B7B
S1130BA09847A8212000234DA8473F212000A847AB
S1130BB0D3212000A84700212000A847402120007D
S1130BC0A847A1212000A847C8212000A847DA216E
S1130BD02000A84712212000A8478F212000164B8F
S1130BE09847A4212000A847A6212000A847D52182
S1130BF02000A84780212000A8478D212000A84775
S1130C0014212000A847DB212000A8474021200010
S1130C10A847D9212000A847F1212000A847200097
S1130C20064B98472000F8BD28000020050A000064
S1130C30490B00009B0A0000690B0000590B0000DF
S1130C4001607047F8B5CE46474680B5060008A84F
S1130C500078844630680479C818A04201DD641A1B
S1130C60E3B2002B3FD0D508E800121A01209040CF
S1130C70C7B26246012A1DD0002A38D0022A32D1D6
S1130C800139CAB290464344DCB2306883681B68B9
S1130C90220029009847030030687B40DBB2826859
S1130CA05268914622002900C847013CE4B24445F9
S1130CB0EBD118E00139CAB290464344DCB2306843
S1130CC083681B68220029009847030030683B436F
S1130CD0DBB282685268914622002900C847013C71
S1130CE0E4B24445EBD10CBC90469946F8BD0139B9
S1130CF0CFB2DB19DCB2C3439846306883681B6803
S1130D00220029009847434603403068DBB28268DA
S1130D105268914622002900C847013CE4B2BC4213
S1130D20EBD1E0E7F0B5DE4657464E464546E0B522
S1130D3085B0070003910EA90E78002B3ED0511EFA
S1130D405918C9B28A4240D0006843795C1EA14256
S1130D5000DBE1B2D3089846CD0807239C461A402D
S1130D60F8331C009440E2B2934662461140511A93
S1130D700B41DBB29946A8452ED0836800961B69C7
S1130D809A465B46039A4146D04744460134A542FD
S1130D900CD93868836800961B699A46FF23039A26
S1130DA02100D0470134E4B2A542F2D83868836800
S1130DB000961C694B46039A2900A04705B03CBC29
S1130DC090469946A246AB46F0BD00688368DC684D
S1130DD033000399A047F1E75A461340826800960E
S1130DE01669039A4146B047E8E70000F0B587B0BA
S1130DF00C0019000CAB1F780DAB1E780096059102
S1130E000B000492210003900E4DA8477A1E049B08
S1130E109C466244D2B20096059B21000398A847E1
S1130E2000963B00049A21000398074DA8470599B2
S1130E3001396118C9B200963B00049A0398A84787
S1130E4007B0F0BD450C0000250D0000F0B587B0DB
S1130E500390049105930CAB1C780DAB1F78002C08
S1130E600ED0013AD6B2A419E4B2064D0097059B00
S1130E70220004990398A847013CE4B2B442F5D196
S1130E8007B0F0BD450C000001607047F0B5DE46C8
S1130E9057464E464546E0B587B083460C0090461B
S1130EA01D00109B1B7A00220192109A527A009224
S1130EB02A0041460068334EB047109B1B78002B34
S1130EC00BD0442230490020304B984707B03CBC3B
S1130ED090469946A246AB46F0BD1098431E9841F1
S1130EE0C0B2F5222849294B9847109B1A7AD30897
S1130EF0520700D00133109A527A9246109A977A88
S1130F00E71B524657435F43BFB2109B5B68039392
S1130F109C4667440495434605930723994626E077
S1130F206BB2002B0EDB0134E4B26D00EDB2039B17
S1130F30A34212D04346E31A4A461A42F0D13D78FE
S1130F400137EDE75B461B6818688368DB681E00A1
S1130F500123049A2100B047E5E7049B0133DBB287
S1130F6004935346013BDBB29A46002BAED0109B50
S1130F701E7A002EF1D04644F6B2059C0025039655
S1130F80D8E7C0464D0E0000B0C900007926000025
S1130F90F0B5C64600B584B002900C001600984621
S1130FA00A9D0800431E9841C0B253221449154FAC
S1130FB0B8472800431E9841C0B254221049B8478C
S1130FC03700039609E06B7A01334344DBB2984659
S1130FD0039F01342378002B0ED021780A29F2D004
S1130FE00D29F6D0009543463A000298064EB047C4
S1130FF02B7AFF18FFB2ECE704B004BC9046F0BDB6
S1131000B0C90000792600008D0E000070B582B0D2
S1131010C023DB058025AD0288229D501B4AA820F1
S11310208021C90511501A4C14508024A4039C60DB
S1131030916218489062802040039860916216493A
S1131040916298229D509C619861144D2B68583A86
S113105019684A71196880234B71114C62712371AC
S1131060210028316C3B0193013300931C330D4A5A
S113107020000D4EB0470D4E210030000C4B984718
S1131080310028000B4B984702B070BD004400416A
S1131090020000C0200000C0100000C05015002055
S11310A08C0A0020281500208D090000541500200A
S11310B0410C0000890E000010B502490248034BA0
S11310C0984710BD40160020CC140020FD1E0000DF
S11310D010B5C278CB789A420AD10423C45CCA5CA6
S11310E0944207D10133DBB2062BF7DD012010BD9A
S11310F00020FCE70020FAE710B5242805D0244B93
S11311001B78012B09D0012010BD0123204A137044
S1131110204A1070204A1370F5E71F4A13781D49BE
S1131120C8540133DBB21370052BECD90022184BE1
S11311301A701A4B59681748194B9847002807D05A
S11311405323164AD356002B02DD1278154B1A701E
S1131150154B59680F48124B9847002807D0612354
S1131160114AD356002B02DD12780E4B1A700F4B26
S1131170596808480A4B98470028C4D040230B4AB2
S1131180D356002BBFDD1278064B1A70BBE7C0465E
S1131190C4150020A0160020581500204816002071
S11311A0D11000009C1600205C150020C8150020FA
S11311B010B52C2A22D00A2A2AD02A2A32D0B54B9A
S11311C01B7883423BD0B44B1B78834200D1B6E0FA
S11311D0B24B1B78834200D06EE1012900D12DE18E
S11311E0022900D13DE1032900D02DE1AB494B8810
S11311F0C818427601334B8001201FE00023A54A22
S11312005380A54A5380A54A53800220404215E0EA
S11312100023A04A5380A04A5380A04A538003204D
S113122040420BE000239B4A53809B4A53809B4AD5
S113123053809B4A137801331370012010BD012998
S113124021D0022927D003292DD0042930D0052903
S113125037D006293AD007293DD0082944D0092996
S11312604BD00A2952D00B2958D00C295FD0012029
S11312700F29E3D187494B88C8184D3002700133D8
S11312804B800120DAE783494B88C8180272013386
S11312904B800120D2E77F494B88C818027501337F
S11312A04B800120CAE724237A49CA540120C5E7A8
S11312B078494B88C8182530027001334B800120CF
S11312C0BCE735237349CA540120B7E73623714973
S11312D0CA540120B2E76F494B88C81837300270EE
S11312E001334B800120A9E76A494B88C8183A307A
S11312F0027001334B800120A0E766494B88C8186F
S11313003E30027001334B80012097E7614B3C3142
S11313105A545A8801325A8001208FE75D494B881C
S1131320C8184730027001334B80012086E7594BBF
S113133040315A545A8801325A8001207EE70129EB
S113134020D0022926D003292BD0042931D0052905
S113135037D006293ED0072944D008294BD0092983
S113136052D00A2959D00B2960D001200D2900D070
S113137064E749494B88C8185C30027001334B80DC
S113138001205BE744494B88C818027201334B8043
S1131390012053E7404B1A765A8801325A800120C3
S11313A04CE73D494B88C818427601334B800120F5
S11313B044E7394B25315A545A8801325A80012066
S11313C03CE735494B88C8182A30027001334B80FA
S11313D0012033E7304B34315A545A8801325A8051
S11313E001202BE72C494B88C8183B30027001338D
S11313F04B80012022E728494B88C81843300270EB
S113140001334B80012019E723494B88C8184B301E
S1131410027001334B80012010E71F494B88C81824
S11314205330027001334B80012007E71A4B5031CF
S11314305A545A8801325A800120FFE617484388DB
S1131440C41822720133438004291BD0052929D1F1
S113145012494B88C8182A30027001334B8001208E
S1131460ECE60E4B1A76588801305880073901296A
S113147025D80A494B88C8183B30027001334B8089
S11314800120DBE6054B25315A545A8801325A8033
S11314900120D3E6481600205C150020C815002062
S11314A09D1600200629E1D1064B34315A545A883E
S11314B001325A800120C1E601204042BEE60120EB
S11314C0BCE6C046C8150020F8B53E4B1B789842D0
S11314D008D03D4B1B78984227D03C4B1B78984250
S11314E045D0F8BD3A4C20003A4EB04702003021B6
S11314F02000394DA84727000C373800B0470200B8
S113150030213800A84727001D373800B0470200B3
S113151030213800A847083C30223623E254163BD9
S11315200C3AA3541132A354DBE72C4C2000294E6F
S1131530B047020030212000274DA847270011376B
S11315403800B047020030213800A847270022376E
S11315503800B047020030213800A847083C562222
S11315603A23E2541A3B23762D3AA354B9E71C4C90
S11315702000184EB047020030212000164DA84725
S1131580270011373800B047020030213800A8473F
S11315902700113F3800B047020030213800A84727
S11315A0270032373800B047020030213800A847FE
S11315B0193C56232376363B2922A3541132A354D3
S11315C08FE7C04648160020C81500205C1500208F
S11315D050160020C17B000035790000D015002092
S11315E07515002070B5174A174B5360174C184BEC
S11315F06360184D184B6B60012010700223237038
S113160001332B7000210023518061806980134EC7
S1131610318013490B7013490B7013490B70134934
S11316200B7013490B70532153544022AB54612364
S1131630E054104EB04700202856B04700202056F2
S1131640B04770BD48160020CCC900005C150020CE
S1131650D4C90000C8150020DCC900009E16002073
S113166058150020C41500209C1600209D1600204B
S11316702C160020C914000010B50648064B9847E4
S1131680002805DD05490648064B9847012010BD92
S11316900020FCE7CC140020CD1E00000C16002016
S11316A0001500207D27000010B5464B1B78012B48
S11316B00FD0002B07D0022B33D0032B59D000229C
S11316C0404B1A7003E0404B1878404B9847002079
S11316D010BD53233E4AD356012BF8D13A4B1A7806
S11316E03C4B19783A4B18783B4B9847031E3B4ABE
S11316F01070ECDAC21C06D00233E8D1354A1378F4
S113170001331370E3E700232E4A1370314A137038
S1131710012233490A7033490B7052332C49CA549D
S1131720D5E76123304AD356012BD0D1264B1A7802
S1131730284B19782C4B1878274B9847031E274AB7
S11317401070C4DAC21C06D00233C0D1214A137807
S113175001331370BBE700231A4A13701D4A137038
S113176001221F490A701F490B7060331E49CA5475
S1131770ADE740231D4AD356012BA8D1124B1A784A
S1131780144B1978194B1878134B9847031E134AB6
S113179010709CDAC21C07D0023300D097E70D4AC0
S11317A013780133137092E70023064A1370094A31
S11317B0137001220A490A700A490B703F330B491E
S11317C0CA5484E79C1600200C160020F91000006F
S11317D0481600209D160020B11100002C16002090
S11317E0C4150020581500205C150020C8150020E1
S11317F0EFF31083036072B6BFF35F8F7047BFF3DC
S11318005F8F036883F310887047000010B5024BA4
S11318101860024B984710BDB40E0020213100001F
S113182010B5044B1C68044B984701002000034B7F
S1131830984710BDB40E0020612800003531000027
S113184010B5044B1C68044B984701002000034B5F
S1131850984710BDB40E00207D28000035310000EB
S113186070B50C4B5C68A0420ED001220021012609
S1131870FF2503E02A0053185B080AD1A042F9D9D6
S1131880002A06D03100F6E7024B1B68002B00D07B
S1131890984770BDB80E002010B5054B0122524286
S11318A05A6000221A600348034B984710BDC04693
S11318B0B80E002061180000B528000070B50600BD
S11318C00C00150000280DD00800431E9841C0B23A
S11318D034220549054B984733682A00210030001B
S11318E0984770BD0020F3E7E4C9000079260000A2
S11318F070B506000C00150000280DD00800431E2A
S11319009841C0B23D220549054B984773682A00A7
S113191021003000984770BD0020F3E7E4C90000BF
S11319207926000070B504000D00002816D00800C8
S1131930431E9841C0B2402209490A4B984765604A
S1131940201D2900084B9847002806DB074BA3827B
S1131950074B2361074BE360002070BD0020EAE7DA
S1131960F8C9000079260000052E00000080FFFF62
S1131970251A0000E919000010B50400431E98411F
S1131980C0B257220349044B9847201D034B984784
S113199010BDC046F8C9000079260000FD2E0000E5
S11319A030B587B004000D00002814D00800431E91
S11319B09841C0B2B3220949094B98472B68039355
S11319C06B680493AB6801930593201D03A9054B31
S11319D0984707B030BD0020ECE7C046F8C90000C6
S11319E079260000312F000070B584B004000E0089
S11319F01500431E9841C0B2A3220749074B9847DC
S1131A00002302930196039520000C3801A9044B8E
S1131A10984704B070BDC046F8C90000792600009C
S1131A20A119000070B584B004000E001500431E17
S1131A309841C0B287220749074B98470296002372
S1131A400193039520000C3801A9044B984704B076
S1131A5070BDC046F8C9000079260000A119000035
S1131A60F8B5CE46474680B5814603689C46002BB0
S1131A7005D08E681C0000250127BF1A0DE0124B0B
S1131A80984718E0FB18A06880464344B3420CD240
S1131A9023682500002B0BD01C0063689342F1D807
S1131AA0A068804643449B1AF0E7A44507D02C0065
S1131AB02000064B98470CBC90469946F8BD484612
S1131AC0014B9847F7E7C046A5260000D126000041
S1131AD0F0B5C64600B582B0070044690369013316
S1131AE098460361037EDB0711D4037E9B070ED463
S1131AF0002C10D0434662689B1AA26893420AD312
S1131B0014239C46844463460193124E14E03B7EA6
S1131B10022213433B7602B004BC9046F0BD7D69BB
S1131B20E36820009847002DF5D02C0043466A68EE
S1131B309B1AAA689342EED30198B047237C012BE9
S1131B40EDD143466360424621000198024B984719
S1131B50E5E7C04619270000611A000070B50500CA
S1131B600C00002811D00800431E9841C0B23B224B
S1131B700749084B984721002800074B9847002342
S1131B802B61064B2B60002070BD0020EFE7C046A0
S1131B9014CA00007926000089310000D11A00001F
S1131BA010B5083800230363436A002B00D098471C
S1131BB010BD10B5083800230363C36A002B00D09E
S1131BC0984710BD10B504002C30044B9847236A85
S1131BD0083C002B01D02000984710BDC527000009
S1131BE070B504000E00150000281DD000291DD07A
S1131BF01000431E98413C22FF320F490F4B984777
S1131C004423E25A0833E35A9A4211D1A6644C237E
S1131C10E5520022083BE252433B23632000083094
S1131C20074B9847280070BD0020E4E70020E2E756
S1131C301C204042F7E7C0462CCA00007926000069
S1131C40132D000070B5040001000839838F4C2265
S1131C508A5A9A420CD00A00896C5D1C44201552A1
S1131C60C95C2000044B98472000044B984770BD82
S1131C70034B9847FBE7C046E52C0000132D0000FA
S1131C801B2D0000F0B5CE46474680B585B0050053
S1131C900E001700002815D0002913D0002A2AD1DD
S1131CA0AC22520029490020294B984703A8294B0C
S1131CB0984728003430284B984703A8274B984767
S1131CC000253CE0AC22520020490020204B9847DC
S1131CD003A8204B98473435280001951E4B98479C
S1131CE0804603A81D4B984700254346002B26D069
S1131CF0002F16D123E0AC22520014490120144BCA
S1131D00984703A8134B9847343528000195124B84
S1131D109847804603A8114B984743460025002B5B
S1131D200DD000240E4B9946651CADB231190198B3
S1131D30C8470134444502D2A3B29F42F4D82800D4
S1131D4005B00CBC90469946F0BDC0462CCA0000B4
S1131D5079260000F117000005280000FF17000095
S1131D607D270000F8B504000D0016001F000028B0
S1131D7026D0002926D0002A26D01800431E9841D8
S1131D803A221449144B9847200034303A00310069
S1131D90124B9847002819D1200008302900104B15
S1131DA0984700280BD10F4B63600F4B23600F4BF8
S1131DB0A3600F4BE3600F4B23610F4B6361F8BDCE
S1131DC00020DDE70020DBE70020D9E70D204042BA
S1131DD0F5E7C0462CCA0000792600002927000038
S1131DE0392C0000851C0000E11B0000451C00008C
S1131DF0C51B0000A11B0000B31B000010B50400AC
S1131E00431E9841C0B261220449054B9847200003
S1131E100830044B9847002010BDC0462CCA00006F
S1131E2079260000C92C000070B504000D000028BC
S1131E300AD00800431E9841C0B277220349044BDC
S1131E4098472C60002070BD0020F6E72CCA0000E3
S1131E507926000070B505000E001400431E984159
S1131E60C0B283221649174B9847012E11D0002E79
S1131E7004D0022E18D00D20404209E0AC62621E4C
S1131E809441E2B22800083001210F4B984700200A
S1131E9070BD6C62621E9441E2B2280008300221D7
S1131EA0094B98470020F3E7EC62621E9441E2B2CA
S1131EB0280008300321044B98470020E8E7C04677
S1131EC02CCA000079260000252D000010B504005E
S1131ED0431E9841C0B20222FF320549054B984780
S1131EE020003430044B9847431E984110BDC0462F
S1131EF02CCA0000792600000528000070B50400F3
S1131F000D00431E9841C0B20C22FF320B490C4B0A
S1131F109847002D09D0236B2B604423E35AAB80F0
S1131F2020003430074B9847E880236BDB0701D44B
S1131F30002070BD04204042FBE7C0462CCA0000CC
S1131F407926000005280000F8B5CE46474680B53E
S1131F5004000F009046002826D0002926D0100047
S1131F60431E9841F1221249124B98470834124DEE
S1131F702000A8470028FBD00026104B99460E4DA0
S1131F80B95D2000C8472000A8470028FBD00136CF
S1131F904645F5D30A4D2000A8470028FBD0300061
S1131FA00CBC90469946F8BD0020DBE70020D9E739
S1131FB04CCA000079260000F52C0000DD2C00003E
S1131FC0FF2C0000F8B5CE46474680B504000F004C
S1131FD0904600281DD000291DD01000431E9841B2
S1131FE0862252000D490E4B9847002608340D4DA9
S1131FF00D4B99462000A8470028FBD02000C84775
S1132000B85501364645F5D330000CBC9046994688
S1132010F8BD0020E4E70020E2E7C0464CCA000017
S113202079260000092D0000ED2C000070B5050094
S11320300C00002813D00800431E9841C0B234227B
S11320400849094B9847280008302100074B984756
S1132050002803D1064B6B60064B2B6070BD00203B
S1132060EDE7C0464CCA0000792600000D2C0000A4
S1132070C51F0000491F000010B50400431E98410D
S1132080C0B253220449054B984720000830044B42
S11320909847002010BDC0464CCA000079260000B5
S11320A0B52C0000F0B504000E4B5A78904217D0BE
S11320B0002300200B4D0F2727402E0008E001309D
S11320C040B20D280AD02033F2185278A24206D02A
S11320D0595D0029F3D19742F1D100E00E38F0BDEB
S11320E00020FCE7C00E00200020704770B50400FB
S11320F00D000A4B98474201094B9B189A7800231C
S1132100032A01D0180070BD4001054B18188369DB
S11321102900200098470300F4E7C046A5200000EA
S1132120C00E0020F0B585B005000F001600514B1D
S113213098470400002F62D14F4B420199180020A8
S1132140C870D35C002B0ED062014B4B9B1801224C
S11321509A706401484B1C19E178E3693200280045
S1132160984705B0F0BD8B78032B0CD0424B62012D
S11321700C329A1864011C1960780021E3699847AD
S11321800223A370EDE73C4A0B000C254D57610177
S11321900C3152185878DB6901219847002817D070
S11321A06201354B9B1805229A70033ADA70002DB0
S11321B009DB6401304B1C1960788023184301212A
S11321C02E4B9847CDE764012B4B1C196078F6E73A
S11321D06401294B1C190423A37063780022019223
S11321E00292002D08DB8032134301A803720123FD
S11321F04372234B9847B4E70F221340F5E7012FAE
S11322000AD0022F1DD0032F2CD042011A4B9B1849
S113221006229A70DA709CE7174B42019918022043
S1132220C870D35C002B05D06201134B9B180522A8
S11322309A708EE702228A70002128000F4B98477B
S113224087E70D4B420199180420C870D35C002B1A
S113225005D06201084B9B1801229A7079E702238A
S11322608B707EE74201044B9B1800229A70053262
S1132270DA706EE7A5200000C00E0020653F000064
S113228039410000F0B5C64600B504001D4B98471F
S1132290060045010C351C4B5D19290020001B4B21
S11322A09847C0B208280AD001212000184DA84739
S11322B0802020430121A84704BC9046F0BD0021A2
S11322C02000134B98469847802727430021380065
S11322D0C04772010C4B9B1801229A705B6929005C
S11322E0200098470028E7D17601074B9E19052363
S11322F0B37001212000064CA04701213800A047FB
S1132300DAE7C046A5200000C00E0020C940000046
S1132310653F000010B5144B9847002822DB134C8E
S1132320D022520000212000114B9847631C20004A
S1132330A230FF30FF240F4A1C70190013310A60C9
S113234004310A6004310A6020338342F4D10A491B
S113235000200A4CA0470A490120A047094902204D
S1132360A047002010BDC04639390000C00E00202F
S113237035790000E9200000852200007143000047
S1132380ED2000002521000010B5014B984710BD39
S11323904D43000010B5014B984710BD153A00009D
S11323A010B5014B984710BD653A000010B5014BBC
S11323B0984710BD753A0000F8B505000E001700E7
S11323C00F4B9847002814DAFF200D4B9847041E42
S11323D012DB3A00310028000A4B9847002807DB3B
S11323E0094A640113195D7003231E40A65400209A
S11323F0F8BD14204042FBE715204042F8E7C046F0
S1132400A5200000853A0000C00E002010B582B25D
S113241000210020014B984710BDC046B92300009D
S113242070B50500064B9847041E07DB2800054BD2
S113243098476401044B1C19FF23637070BDC046A8
S1132440A5200000B13B0000C00E002070B50400C0
S11324500E4B9847051E15DB43010D4A9B5C5A42FF
S11324605341013341010A4A521893702000094B29
S11324709847002800DB70BD6D01054B5D190023F2
S1132480AB70F8E712204042F5E7C046A5200000F3
S1132490C00E00207D3C0000F0B5D6464F464646AF
S11324A0C0B586B00400077A3800404B9847050051
S11324B0667A63689846002800DA71E004A83C4B09
S11324C098476A013B4B9B189A7817236B441A7000
S11324D01B78012B10D004A8374B984717236B4463
S11324E01B78DBB2052B5ED0062B23D00120002BFA
S11324F03CD11320404239E02E4B99466B019A4659
S11325004B46534403229A7004A82B4B98474B46DE
S11325105246D35C002B10D0237A721E9641F6B239
S113252022680192424602927FB2002F17DB0F22EB
S1132530134016E01020404218E06B011D4AD218E7
S1132540D17C0902937C5B189BB2002B14D1042329
S1132550937000220126237A21680191029280223D
S1132560134301A803724672144B984706B01CBC6F
S113257090469946A246F0BD42469A4200D91A00B6
S11325806D010C494D19297B7F2905D8237A2168CF
S1132590019102920026CAE79A42B6417642DAE7EE
S11325A012204042E2E70220E0E7C046A5200000F6
S11325B0F1170000C00E0020FF1700003941000091
S11325C070B50400002905D0012921D00221134B44
S11325D0984770BD124B9847051E1CDB0221200052
S11325E00E4B98470028F4D0002120000B4B98474D
S11325F00028EEDB6D010B4B5D190123AB70023338
S1132600EB70EB6900220321200098470020E0E7EB
S1132610024B9847DDE712204042DAE7653F0000AD
S1132620A5200000C00E002070B50D0014000F4B53
S113263098470300221E08D0002B05DB012D0BD088
S1132640002D04D0022D0CD070BD094AF4E74001DE
S1132650084B18184261F7E74001064B18188261CD
S1132660F2E74001034B1818C261EDE7A520000012
S1132670E9200000C00E0020002800D100BE7047F1
S11326800368002B0AD08B420AD01B68002B03D0AE
S11326909942FAD1012000E0002070470020FCE7B5
S11326A00120FAE770B504000D00064B984701239A
S11326B05840C0B239220449044B984723682B6020
S11326C0256070BD8126000068CA000079260000DC
S11326D003680B600160704770B505000E00046864
S11326E00A4B984701235840C0B24F220849094B6E
S11326F098472B68002B03D12E60336005E01C0043
S11327002368002BFBD12660336070BD8126000056
S113271068CA0000792600000368002B01D01A68FB
S1132720026018007047000070B504000E00150028
S113273000280BD0002918D00120002A07D1282214
S11327400C4900200C4B98476B1E07E00020282200
S11327500849094B98476B1E2B4208D1636000233C
S1132760A360E3602660002070BD0020EFE70D2029
S11327704042F9E788CA00007926000070B50400D9
S11327800D00002815D00800431E9841C0B2402215
S11327900A490B4B9847A368E2689A420BD06268D7
S11327A013402268D35C2B70A3680133A36000201C
S11327B070BD0020EBE70A204042F9E788CA000018
S11327C07926000070B504000D00431E9841C0B284
S11327D051220A490A4B98476368E2681340226809
S11327E0D554E3686168A2689A1A8A4201D9591AD1
S11327F0A1600133E360002070BDC04688CA0000B8
S11328007926000010B50400431E9841C0B2672227
S11328100349044B9847E068A368C01A10BDC0463A
S113282088CA0000792600000300064A1268002ABC
S113283004D0044A1068C318136070470249014A5F
S11328401160F6E760100020183700200120404294
S1132850704780239B014B60002070470020704725
S113286010B50300C8208000584301386421024B8E
S11328709847013010BDC04685580000FA235B011B
S11328805843704710B5064B5A685A60054B984731
S1132890054B9847054B9847FF20054B984710BDBB
S11328A000400041A92A0000413000009D30000092
S11328B0312A0000214A5378DB09FCD11F4A53789E
S11328C0DB09FCD11D4B1B789B070AD500221B4B4F
S11328D01A701A005378DB09FCD1184A5378DB09C3
S11328E0FCD10122154B1A701A005378DB09FCD174
S11328F0124A5378DB09FCD1104B00229A70202134
S113290059605961A02109049961DA611A78022198
S11329100A431A701A005378DB09FCD1084B1022C1
S113292080215A50BFF34F8FBFF36F8F0131FF31B6
S11329305A501A60034B186000207047001800407A
S113294000E100E064100020F0B5CE46474680B5B3
S113295083B0314B1A69D9680A400192019A1A610D
S11329602E4B1868431E9841C0B2D2222C492D4BDD
S11329709847019B002B49D001235B4299462A4B7F
S11329809846264F294D3AE0013AD6B2B1420CD8C6
S113299073185B10DAB20340DB005B5DA34208D01E
S11329A09C42F1DD0132D1B2F0E74B46013305D050
S11329B001E00523994648463B689847019B01225C
S11329C0A240934301930198174B9847013844B2AE
S11329D0631C0AD0052C05D0052300220126002102
S11329E0FF20DDE705239946E5E70B4B1A69D96813
S11329F00A400192019A1A61019B002B06D00198AA
S1132A00C047013844B2631CE4D1EEE703B00CBC08
S1132A1090469946F0BDC04600180040641000205E
S1132A20B4CA000079260000DD590000ACCA0000D9
S1132A30C3070AD5174B802252009A6083225202A0
S1132A405A601A005378DB09FCD1830708D5114B6F
S1132A50114A9A60114A5A601A005378DB09FCD172
S1132A60030709D50B4B0422FF329A600C4A5A60C3
S1132A701A005378DB09FCD1030609D5054B08225B
S1132A80FF329A60074A5A601A005378DB09FCD176
S1132A907047C046000C0040010800000106010018
S1132AA003050B0007072100064B1A7AD2B21A72EB
S1132AB05A7AD2B25A729A7AD2B29A72DA7AD2B272
S1132AC0DA72704700040040C369DB0709D4036865
S1132AD00222134303600132C3691A42FCD100206D
S1132AE0704704204042FBE710B50400424BC31872
S1132AF09B0ADBB2012B53D0032B53D03F4A4049EE
S1132B000020404B98470020E369DB0721D4830071
S1132B101B189B003C4AD318D9691C231940032273
S1132B20E3691A42FCD123689B070BD52368022270
S1132B30934323600323E2691342FCD10223E26935
S1132B401342FCD101230B4323600322E3691A429D
S1132B50FCD10122E3691A42FCD1010083001B1855
S1132B609B00294AD318D86920600322E3691A42DA
S1132B70FCD18B005B189B00234AD3181B6A63604B
S1132B800722E3691A42FCD1C023DB0118420BD1AE
S1132B908B005B189B001C4AD3189B8CA3811AE002
S1132BA00020B1E70120AFE78A0052189300164ACB
S1132BB0D218908CA389C004C00C5B0B5B03034345
S1132BC0A3812632137807221A40A3895203DB0417
S1132BD0DB0C1343A3810C4A880043189B00D318D1
S1132BE027331B78A37341188900521828321278AE
S1132BF03023E254002010BD00F8FFBD5E02000047
S1132C000CCB000079260000CCCA000070B505008A
S1132C100C00431E9841C0B2B6220449044B9847A5
S1132C202C602000034B984770BDC0460CCB0000BD
S1132C3079260000E92A000070B505000C00431E47
S1132C409841C0B2C4221449144B98472000144B35
S1132C509847002800D070BDAC61124B9C4217D03D
S1132C60114B9C466444A40A0934E3B22206F2D40C
S1132C701F221A40012393400C4A80215350BFF372
S1132C804F8FBFF36F8F0131FF3153501360E2E771
S1132C90074B1D600A23EBE70CCB000079260000EC
S1132CA0E92A0000000C004200F8FFBD00E100E04A
S1132CB0681000200268136802210B43136001317D
S1132CC0D3691942FCD170478269136802210B430E
S1132CD013600131D3691942FCD17047036889B28A
S1132CE019857047836989B2198570470368188DFF
S1132CF0C0B270470368187E012318407047036808
S1132D00187E8007C00F70470368187E4007C00F05
S1132D107047836901229A757047836902229A7504
S1132D207047000070B504000D001600431E984162
S1132D30C0B2164A1649174B984702232A009A43F1
S1132D400ED1A369002E05D101221A75A36901329F
S1132D501A7570BD01229A75A36901329A75F8E754
S1132D60012D07D0032DF4D1A369002E0BD08022AE
S1132D709A75EEE7A369002E02D104221A75E8E7DA
S1132D8004229A75E5E780221A75E2E71E02000024
S1132D900CCB00007926000010B5194B1868846923
S1132DA0237EDB0702D5A37DDB070FD4237E9B079D
S1132DB002D5A37D9B070ED4237E5B0715D5628BBA
S1132DC037231A420CD00833638310BD01232375C3
S1132DD003689847F9E70223237583689847F4E763
S1132DE0218DC9B243689847EFE7237EDB09ECD015
S1132DF080232376C3689847638B9BB26383E4E79D
S1132E006810002070B505000C00354BCB189B0AE8
S1132E10DBB2052B0BD0002850D0601E8441E0B2F9
S1132E20304A3149314B98470D20404245E0002853
S1132E304CD12C4A2C4900202C4B9847E369DB07E2
S1132E4018D40322E3691A42FCD123689B070BD5EB
S1132E5023680222934323600132E3691A42FCD1BE
S1132E600222E3691A42FCD10D2323600322E369A1
S1132E701A42FCD10122E3691A42FCD12C602000E1
S1132E80431E9841C0B21A4A1749184B9847194B28
S1132E9023600322E3691A42FCD180239B0263600E
S1132EA00722E3691A42FCD1012323730021302253
S1132EB0A1542B71104BEB80002070BD094A0A49C4
S1132EC000200A4B98470D204042F6E70800431EB5
S1132ED09841C0B2034A0449044B9847AEE7C04640
S1132EE000F8FFBD480900000CCB00007926000063
S1132EF00D0900000C000100FF01000010B5041EC4
S1132F000BD00068431E9841C0B2054A0549064BE0
S1132F1098472068054B984710BD0020F5E7C04648
S1132F20A30900000CCB000079260000C92A000088
S1132F30F0B5DE4657464E464546E0B583B0814679
S1132F400E0004680B6898464D68037901930028C5
S1132F5015D02000431E9841C0B2364A3649374B3B
S1132F609847E3695B073FD10323E0691840FCD12C
S1132F7023689B073BD5020001239C4609E00020FF
S1132F80EBE7013501325BB2002B16DBB3688342F9
S1132F9027D9237EDBB2042119422BD0A76A002D46
S1132FA0F0D02F7001990129EBD93F0A6F700235D7
S1132FB0E8E701218B46D84437E001235B42638371
S1132FC081332376132040420322237E1342FCD014
S1132FD00323237603B03CBC90469946A246AB46F5
S1132FE0F0BD9342D5D8EFE704204042F2E7142025
S1132FF04042EFE79042C6D867461F42C3D04F46CF
S1133000FF88BA464746002F0FD03F78BA46019949
S11330100129CED947467F783F02BB4657465946D9
S11330200F43BA4602218B46D84401305746A76263
S1133030A9E7C046A80A00000CCB000079260000CE
S1133040144B0E229A82196A1A6A13480140920F8D
S11330509207022002430A431A629A6902439A6160
S11330601A7F1F210A401A7719000222CB681A42DC
S1133070FCD0084A938A80210B43938211000822D2
S1133080CB681A42FCD0034A136A80210B431362B3
S11330907047C046000800400000FF0F02221C4B8E
S11330A09A8419000E32CB681A42FCD0194A184B84
S11330B0DA62194B1B689B0E3F2B1FD09B028022A8
S11330C092001343124A936293235B009384938C7C
S11330D05B0716D511001022CB681A42FCD00C4AAB
S11330E0938C80210B4393840C4A5378DB09FCD1E5
S11330F0074A936902218B4393617047FC23DB01E8
S1133100E0E703491022CB681A42FCD0E7E7C04647
S11331100008004080BB010424608000000C0040D3
S1133120024B034A5A6005221A60704710E000E01F
S1133130FFFFFF0070B50B0E5E1EF6B2002B13D01E
S113314034000E4A0E4D802040025560956013688D
S11331500342FCD0013CE4B2FF2CF6D13306F61A4C
S1133160084B9C4661447118044B596099601900DE
S1133170802252020B681342FCD070BD10E000E0C4
S1133180FFFFFF00010000FFF8B507000C003C4BF7
S1133190CD18AD0AEDB2002D51D09F22520039490D
S11331A00020394B984701267642FC608B22354932
S11331B00120354B9847E37BDB09FCD123889B072F
S11331C004D500232380E37BDB09FCD10123238086
S11331D0E37BDB09FCD1B3009B199A002B4B9B18B2
S11331E05A88228018792072DB8863810C2313406B
S11331F0082B26D0002B2ED1B3009B199B00234A09
S1133200D3189B8923830023638301236373204B97
S11332109C4231D01235EBB22A060ED41F221A403A
S1133220012393401B4A80215350BFF34F8FBFF3B8
S11332306F8F0131FF31535013600020F8BD002619
S1133240B3E7B3009E19B600104B9E19F368A3614F
S11332500023E361D9E7042BD7D10C48B3009A19B2
S113326092008218127B2276002262769B199B00C0
S1133270C3181B7A2375C8E7074B1F60CAE7C0460B
S113328000D4FFBD3CCB00007926000028CB000011
S1133290002C004200E100E06C1000200020704788
S11332A010B5064B1868C3689A7BD20700D410BDCA
S11332B001229A7303689847F9E7C0466C1000200E
S11332C00020704770B5837C0F221340C17C083AFC
S11332D00A40012A0BD05A0119498C466244102134
S11332E0D1715B01174A94466344197070BD4A0654
S11332F00ED5C27C40218A43C2745A01124CA446A2
S1133300624480258224640015550624FF34115537
S1133310C27C08218A43C2740C495A018C180025C6
S1133320A572A5761300064CA44663446F24DC7191
S1133330044B9C4662441470807C8B6E9847D5E79E
S1133340005100410851004100500041701000201C
S113335010B520228A40D2B2817C0F230B405B013E
S113336005498C4663441A708268807C034B1B6F4A
S11333700121984710BDC04608510041701000203B
S113338010B5837CFF2B02D0C27C520600D410BD42
S1133390C27C4024A243C27482680248046F1800AD
S11333A0A047F4E77010002030B583B0837C01ACF3
S11333B02525257025356570FF2B1BD0C47C64063C
S11333C018D50F242340002916D05C010E4DAC46BD
S11333D064448025257101AC645C59010A4DAC46F6
S11333E06144CC715B0109498C4663441C70110033
S11333F0074B984703B030BD5C01034DAC466444B1
S113340040256571E7E7C04600510041085100417D
S11334108133000070B582B0837C0F22134001AA6F
S113342004241470043454705D01002931D01A004E
S113343008325201324C145D6406640F0A015219B9
S1133440304DAA18957AEDB2022C2AD0AC0741D59A
S1133450C57C947A0226B443947201AA545C5A013E
S1133460294EB4466244D4715B01284A94466344AD
S11334701C7007232B40012B3FD1C37C5B063CD53A
S1133480C37CDB09994238D000221900204B9847AD
S113349033E01A0008325201194C145D072214401B
S11334A0CCE7EC07D2D5947A0125AC43947201AAF7
S11334B0545C5A01144DAC466244D4715B01134A06
S11334C0944663441C704B1E9941C9B20422104BAC
S11334D0984712E05A00521812010A488218002034
S11334E0907201AA515C5A01074884466244D17122
S11334F05B01064A94466344197002B070BDC0462D
S1133500005000417010002000510041085100415A
S1133510A9330000F0B5C64600B50D4D2C00743437
S1133520A4239B009C4665440A4B9846FF2700262B
S113353003212000C047A774E6741434AC42F7D1C9
S1133540602200210248044B984704BC9046F0BD19
S1133550701000208133000035790000F0B5C646B4
S113356000B504000E00837C0F251D40002900D106
S1133570AAE06A015A4B9B1858698004800C238A7C
S1133580584A934200D19AE0013B9AB2E37C072760
S11335901F40002E05D06B0153498C466344022121
S11335A0D971A368C118A160636899424AD25B1AB1
S11335B09BB2E27C920635D5228A101C92B29A42C2
S11335C000D9181C83B2984623689C46614442463D
S11335D0E068464B9847E1686A01414B9B181961C2
S11335E06A013F4B9B185A6941468904890C920B26
S11335F092030A435A615A693D490A405A61002EAE
S113360007D1012F59D04A226B013A498C466344B1
S11336101A706D01344B9C46654480236B7104BC65
S11336209046F0BD1A1C80208001834201D9324BA0
S11336301A8893B29846236859186A01284B9B1834
S11336401961CDE7E37CDB060FD5E37C10229343BD
S1133650E3746A01224B9B185A69920B92035A61D4
S11336605A6923490A405A61C9E7012F0ED06D01F6
S1133670224B9C4665444A232B70218A0240914286
S11336800BD0002120001E4B9847C8E76D011B4B4F
S11336909C4665444B232B70EFE7E37C4022934325
S11336A0E374A07C0E4BDB6EA16898470028B6D16A
S11336B0E37C40221343E374E3E74E22A4E7E77C70
S11336C007231F40074A66E7038A064A00209342FD
S11336D000D059E7E37C07271F400020014A60E738
S11336E070100020FF03000000510041B178000079
S11336F0FF3F00F00951004150CB00000851004148
S113370081330000F8B5DE4657464E464546E0B5DF
S113371004008846837C0F251D40002957D06A0188
S11337207D4B9B185A681201920C92465F68BF0445
S1133730BF0CBB46068A794B9E4200D1CDE0013EC8
S1133740B6B25F463740E37C07221A4091464346AF
S1133750002B05D06B01724A944663440122DA714E
S1133760E37C9B060FD56368002B39D0A0681B1A35
S11337709BB2226894466044E1681A00BB4200D9B7
S11337803A00684B98476368002B29D04246002AC8
S113379042D0228ABA423FD9E37C10229343E37495
S11337A0A3685B44A3604B46012B00D187E06B0107
S11337B05D4A9446634425221A70002D02D1564B6B
S11337C0E2681A6000212000584B984759E0068AA5
S11337D0524B9E4200D18EE000239B469A46AEE7B0
S11337E0E37CDB0600D47FE0E37C102293432022B9
S11337F01343E374484A6B01E1689950218AD31852
S11338005A68890409094A4802400A435A605A68B6
S1133810920B92035A6022E0A2685244A26093423F
S1133820C1D99B1A9BB2E17C890630D5228A111C2E
S113383092B29A4200D9191C8BB2E0686A013649E7
S113384050506A01344989184A689B041B09384856
S1133850024013434B604B689B0B9B034B604346F6
S1133860002B08D125224B46012B2FD06B01314967
S11338708C4663441A706D01294B9C466544402371
S11338802B713CBC90469946A246AB46F8BD218AB2
S11338908B420AD9802189018B420DD8B343216818
S11338A08A1869011C480A50CBE78B42F7D2E17CA5
S11338B020200143E174F2E780239B01EFE76B01D1
S11338C0194A944663442D221A7076E76A01124B12
S11338D09B1800229A762D32C8E7BF05BF0DC37C22
S11338E007221A40914635E74346002B0CD1A368C2
S11338F05344A36057E7C37C07221A40914600272C
S113390000239B469A462BE7238ABB4200D943E710
S1133910A3685344A36046E770100020FF0300002F
S113392000510041B178000008510041813300008A
S1133930FF3F00F00951004110B5314B9B78DB0784
S11339401FD42F4903228B781342FCD12C4B1B78B4
S11339509B070ED52A4A137802218B43137011005A
S113396003228B781342FCD1254902228B7813421F
S1133970FCD10122224B1A70190002328B781342B7
S1133980FCD11F4901228B781342FCD11D4B1E4AE6
S11339901A665A669A66DA661A671C4B98471C4B75
S11339A01B685A0B1F210A40980C01409B015B0FB6
S11339B01F2A1FD01F291FD0072B1FD092010A4393
S11339C01B0313430E4A1385D37803210B43D3708F
S11339D0D3780C210B43D3700423137011000322FA
S11339E08B781342FCD1064B064A5A6201221A8193
S11339F0002010BD1A3ADDE70239DDE7023BDDE7BE
S1133A000050004170100020C13200001535000044
S1133A1024608000104B9B789B071AD10E49032227
S1133A208B781342FCD10C4B1B78DBB29A0708D479
S1133A3002221343084A1370110003228B781342A5
S1133A40FCD18022054B1A60054A034B1A830020DF
S1133A50704711204042FBE70050004100E100E0C4
S1133A608D020000024A138901218B4313817047A0
S1133A700050004180231843014B98727047C046A0
S1133A8000500041F0B50F24044043B29C46002C82
S1133A9054D02500002B07DB032319402700022CF8
S1133AA050D91220404225E0A51CF5E76346002BBF
S1133AB021DB7B00DB199B003B4C1B59002B66D19F
S1133AC07B00DF19BF00384BFF58384BAE00741928
S1133AD0A4001C198034276060337419A4001C19D5
S1133AE0A2842734013121707519AD005B19263386
S1133AF018700020F0BD7B00DB199B002A4CE318F2
S1133B005B68002B06D17B00DF19BF00264BDF1951
S1133B107F68DAE77B00DB199B00234CE3185B89A1
S1133B209342F0DA13204042E4E714204042E1E7F4
S1133B3014204042DEE713204042DBE70323194010
S1133B4000250027AB005B199E00184B9B19863398
S1133B501B78FF2BE9D10029A8D1002C04D063469F
S1133B60002B01DB0234E4B2A3001B199B000F4CB1
S1133B70E41886342378FF2BDAD17B00DB199B0011
S1133B80094C1B59002BD6D06346002BB3DB7B00BA
S1133B90DB199B00044CE3181B89934200DB8FE77D
S1133BA013204042A6E7C04654CB0000701000200A
S1133BB0F8B505000F24044047B2002C10D02000B3
S1133BC0002F02DB022C02D9F8BDA01CFAE7060084
S1133BD00130830018188000254B6033181802E068
S1133BE0234874300026B3009B199A00204B9B187D
S1133BF086331B78FF2BE7D0F90F03221D4B984720
S1133C00B3009B199A001A4B9B188033DA79072367
S1133C101340012B1BD0002F1FDB6D01164B9C465C
S1133C20654480225200AB5C07218B43AB54104B9C
S1133C306033B1008A1992009A182732002010705C
S1133C408E19B6009B192633FF221A70BCE708357B
S1133C506D010022084BEA54E9E76401064B9C46D7
S1133C60644480225200A35C70218B43A354DEE79A
S1133C7070100020A933000000500041F0B50F225D
S1133C80024040B2002A00D192E0130000280BDB6E
S1133C90110008325201AE4C155DEDB2022900D874
S1133CA08DE012204042E4E0931CF1E776322A4290
S1133CB075D1A74A94466444112080225200A0542E
S1133CC09A00D2189500A34A60325219928C950337
S1133CD0A148054080208000824200D9CAE0013812
S1133CE0FF38824200D91BE1802A00D908E1402A2A
S1133CF000D91DE1202A00D90AE1102A00D91FE1C8
S1133D00F838904280414042060735437D60920472
S1133D10920CB6E070222A4244D18E489E00F218DA
S1133D20920082188032D2795207520E1543884A83
S1133D309446644480225200A5546030F618B600BC
S1133D408019808C8504AD0C0132FF320723904228
S1133D5014D8013AFF3A013B90420FD8013B802826
S1133D600CD8013B402809D8013B202806D8013B48
S1133D70102803D8F83A8242924153421B072B433E
S1133D807B61802282235B00E2544901714B591804
S1133D9000238B7600206CE01220404269E014205E
S1133DA0404266E01420404263E01420404260E058
S1133DB080235B00664AD55CEDB2002100239A00A3
S1133DC0D2189400634A121986321278FF2AE3D07B
S1133DD04C01604A17199E00F618B60092198032F9
S1133DE0D67907223240012A00D15FE7002891DB0F
S1133DF06A07DAD157489E00F2189200821880327E
S1133E00D2795207520F1543514A94466444802292
S1133E105200A5546030F618B6008019858CAB03A7
S1133E204D4818400132FF320723954214D8013A15
S1133E30FF3A013B95420FD8013B802D0CD8013B42
S1133E40402D09D8013B202D06D8013B102D03D865
S1133E50F83AAA42924153421B0703437B60402233
S1133E600623FF33E25449013A4B591800238B725D
S1133E700020F0BDE020C00505437D609204920C53
S1133E800720000702437A610625FF354026665560
S1133E9082277F008022E2552E48490141180022E2
S1133EA08A728A766032944684449900CA189200D1
S1133EB06244263214780F222240CC18A40004193C
S1133EC08034246852011450C91889006144898CD3
S1133ED08018436889040909204C23400B4343603C
S1133EE043689B0B9B034360194BD318B021D955EE
S1133EF05E551B4B9C466244102313700020B8E7A8
S1133F00A020C00505437D609204920C0520B8E70B
S1133F10C020800505437D609204920C0320B0E725
S1133F20C020C00505437D609204920C0620A8E7DA
S1133F308020C00505437D609204920C0420A0E714
S1133F408020800505437D609204920C022098E74E
S1133F50005000417010002000C0FF0FFF3F00F030
S1133F6009510041F0B50F23034040B2C40F002BA8
S1133F7009D01A00002804DB022B05D91220404284
S1133F8019E09A1CF8E70022012915D0002936D03F
S1133F9093009B189B00474AD218863212780F234D
S1133FA013405B01444A9446634498791023A34028
S1133FB01840431E9841F0BD1025A540EDB23D497F
S1133FC0900083189B00CB1886331E780F23334050
S1133FD05E01394FBC46664475712025A540ECB29C
S1133FE05B01364DAC4663441C70821892008A18FB
S1133FF08032D37908210B43D3710020DBE793008F
S11340009B1899002B4B5B1886331B780F210B40B0
S11340105D012B498C466544832149006E5CF63969
S1134020A14000200E42C6D0C9B20530FF30295449
S11340302021A140C8B25B01224EB44663441870EB
S11340400823FF33EB5C0B4209D00823FF33E85409
S1134050073BFF3BA340DBB2822149006B54930032
S11340609B189900134B5B188033D97907230B40B5
S1134070012B0BD093009A1892000E4B9B1880339F
S1134080DA7908218A43DA71002094E70633FF3392
S1134090E95CD63B0020194200D08CE793009A18C3
S11340A09200044B9B188033DA7908218A43DA7131
S11340B081E7C046701000200051004109510041C1
S11340C0005000410851004170B50D000F23184005
S11340D04401164B1B1919685B689B049E0C02284B
S11340E01AD8002D1BD0124B9C46644480235B00DD
S11340F0E35C112B16D10823FF33E35C0020DB06BD
S113410000D470BD082228000A4B984710220823C7
S1134110FF33E2543000F4E712204042F1E712206A
S11341204042EEE713204042EBE7C0467010002007
S113413000500041B1780000F0B5DE4657464E46C7
S11341404546E0B585B08046067A0F23334076B203
S1134150002B00D1D3E01800002E39DB0400734A91
S11341606032411C8D006D18AD005519810009188D
S113417089005218918C6E4A91422BD04F1EBFB2C7
S1134180424652681740022B00D9A4E043461B68FC
S11341906848834220D9981801906748844601985A
S11341A0604519D89B0717D1002E32DB914200D904
S11341B0AFE0002F30D0A3001B199A005B4B9B1873
S11341C080331B68002B00D18BE0002399460FE05D
S11341D0981CC3E70F00D3E7A3001B199A00534BA5
S11341E09B1880331B68002B00D177E0012399468C
S11341F0A3001B199A004D4B9B188033DB790220D6
S11342001B070CD505B03CBC90469946A246AB466C
S1134210F0BD00239946EBE700239946E8E703A89D
S1134220464B9847A3001B199A00404B9B188033B8
S1134230DB795B0644D4A3001B199B003B4A9346DD
S11342409B4480235B449A46DB79402213435246C5
S1134250D37103A83A4B98475B46424612685A67A3
S1134260424652689A6700235A46D367F20FD20136
S11342705346D9797F230B404946490113432022F1
S113428093430B435246D37143465B7A0022002B7F
S113429002D07A427A41D2B2A3001C19A400234B63
S11342A01B1980331201DF7910218F431743DF710B
S11342B0002E0ADB00212800224B98470020A1E7AA
S11342C003A81F4B984701209CE7002128001E4BA0
S11342D09847002096E71220404293E7132040427B
S11342E090E7122040428DE7132040428AE743467C
S11342F05A689705BF0D0D4D7435002446E70B4AE7
S11343006032918C0A4A9142F1D0084D74350024F0
S113431034E7A3001B199A00044B9B1880331B68D5
S1134320002BE1D00123994662E7C04670100020BB
S1134330FF030000FFFFFF1FFF7F0020F1170000B5
S1134340FF170000053700005D3500000B1E06D086
S1134350012806D0002801D1034A13667047034B95
S1134360F6E7014A5366F9E770100020C1320000F5
S11343700B1E08D0002808D0012809D0022806D135
S1134380054A136703E0054BF4E7034A9366704755
S1134390014AD366FBE7C04670100020C13200001A
S11343A0F0B5C64600B5834B1E8CB6B2002E05D0C0
S11343B0814C74340025804B9846BBE0998B1B8B51
S11343C00B405A0717D49A051ED41A0640D47022FB
S11343D01A4246D11A0760D4DB07E9D5754B774AF0
S11343E09A839A82923AFF3A1A83734B5B6E002146
S11343F00420984705E004226E4B9A836E4B1B6E93
S1134400984704BC9046F0BD6A4B6C4A9A839A82E2
S1134410923AFF3A1A83684B1B891B071B0F032B25
S11344200CD0654B1B8D1B071B0F00216F3A032B10
S113443005D0614B5B6E03209847E2E700225201EE
S11344405D4B9B1819894904490D00221A81F0E734
S11344508022584B9A83584B5B6E00210520984765
S1134460CFE7544B9A839A82544A1A83544B9B8CB9
S11344709B060CD45249323AFF3ACB681340D02BF6
S1134480FBD14D4B5B6E002102209847B9E74C49A4
S11344901022CB681A42FCD0F3E7464B002180225D
S11344A052009954F83A9A8368329A82434A1A839A
S11344B0444B9847404B5B6E002101209847A0E78E
S11344C0CB0607D44B0608D48B062ED500213E4BD1
S11344D098472AE03D4B984727E001213A4B9847FB
S11344E023E04B060ED40B0710D48B0712D40723FA
S11344F01A40012A19D14B0710D4CB0615D5334BDA
S1134500984712E00121304B98470EE00121304BCF
S113451098470AE001212F4B984706E000212C4BD5
S1134520984702E00021284B9847013514341B2D8D
S113453000D166E72000A17CFF29F6D00F230B40B1
S1134540012199400E42F0D05901234FBC466144E9
S1134550C9795B01214FBC4663441B781940E4D000
S1134560AB005A19920042447032D27D4723134063
S1134570012BA5D053B2002BB3DB8B06D2D44B074F
S11345800CD4CB070ED407231A40012ACDD10B0734
S11345900CD4CB06C9D50D4B9847C6E700210C4B6C
S11345A09847C2E701210E4B9847BEE70121084B0B
S11345B09847BAE700500041701000200102000043
S11345C0000800401535000051330000C5320000DA
S11345D0153400005D3500000051004109510041CF
S11345E005370000F0B583B01D481E4B98471E4B9D
S11345F0984700241D4D1E4F1E4EE2B20123009326
S11346007E3300212800B8470A20B0470134A4B201
S1134610402CF2D16420174B98470024134E0025F8
S1134620134FE2B200957F2329003000B8470A20D7
S1134630104B98470134A4B2402CF2D13F3C019472
S11346404023009340330022002108480A4DA84724
S11346500A4B1C755C7502229A7503B0F0BDC04606
S11346601C150020791900000D10000054150020BD
S1134670450C000041180000ED0D0000D01600208C
S1134680F0B5C64600B582B0012803D002B004BC20
S11346909046F0BD4D23AB4AD25CAB4B1B789342A2
S11346A000D193E0A84B1A70A64A4E21515C597070
S11346B02F2199704B20105CD8704C20105C18711D
S11346C05971033199710239D9711F31515C1972D1
S11346D05021525C5A720122DA759A4B1A7A9A4B1B
S11346E0DB7A934200D196E0974BDA72954A517A7D
S11346F019733A215973907A9873D27ADA731974C8
S113470001221A76904A8F4B197B5174597B91740C
S11347101B7E412B00D194E0562B00D19BE08A4BA9
S1134720DB7D012B00D1A1E0874B1B7E012B00D147
S1134730A7E0864E347A01346200A418640045343C
S1134740E4B2814F797C0096022322008048814D97
S1134750A847327A0132A218D2B2B97C0096022359
S11347607B48A8473B7D012B00D1A2E0764B5B7DC3
S1134770022B00D1C2E0744B5B7D012B00D085E796
S11347800022714B5A75714D2C7A0134A300E41840
S11347900234E4B26E4E00951023220056213000FC
S11347A06C4FB8470095192322006B4930006B4FBA
S11347B0B84700952223220067493000B847009586
S11347C02B23220066493000B8475FE75E4B5978D7
S11347D04E235C48C35C994200D063E75A4BD978B6
S11347E04B23C35C994200D05CE7574B19794C23A7
S11347F0C35C994200D055E7534B197A4F23C35CED
S1134800994200D04EE7504B597A5023C35C9942E9
S113481000D047E761E74C4B197B4A4B5B7A9942DE
S113482000D061E7484B997B464B9B7A994200D074
S11348305AE7454BD97B434BDB7A994200D053E787
S113484060E7937D012B00D169E7130002225A75BA
S1134850013A9A7563E73C4B9B7D002B00D15EE7E0
S1134860394B01225A7500229A7558E736490023BC
S1134870CB75364B0093022302223548374CA047B0
S113488052E7314F00233B763D000B351137452469
S11348902E4E304B984629780096022322002C484D
S11348A0C047327A0132A418E4B20135BD42F2D1D4
S11348B03FE70022244B1A75254D244E0096102301
S11348C0023228492800254CA047009619230222C9
S11348D025492800A04700962223022223492800C4
S11348E0A04700962B23022221492800A0470096C6
S11348F0342302221F492800A04737E7134D2C7A9E
S11349000134A300E4180234E4B200951023220019
S113491041210F480F4FB847174F00951923220024
S113492039000B480D4EB047390010390095222349
S113493022000748B04700952B2322000F49044862
S1134940B04718E75C150020D01600203C0000207A
S1134950501500208D0E0000A4CB0000910F000024
S1134960B4CB000078CB000080CB000088CB0000E3
S113497090CB000098CB0000C016002097150020B3
S1134980F0B5C64600B582B004000D00CB78303BCC
S11349909800C01840000B79303BC0184F4FB847FF
S11349A00190AB79303BFA2080005843EA79303AE1
S11349B064235343C0182A7A303A93009B185B004F
S11349C0C0186B7A303BC018B847454B98464549E8
S11349D09847454E0199B0470190287830386423B0
S11349E05843AB78303BC0186B78303B9A009B1827
S11349F05B00C01800B2B847071C3C490198C04787
S1134A00011C381CB0473A4B18603A23394AD35C2E
S1134A10572B54D0A378303B9800C0184000E3785B
S1134A20303BC0182D4EB04701906379303BFA20DB
S1134A3080005843A279303A64235343C018E27982
S1134A40303A93009B185B00C018237A303BC0189F
S1134A50B047234D2349A847234F0199B8470190F4
S1134A60207830388300C01840006378303BC01889
S1134A70B047041C1D490198A847011C201CB847D5
S1134A801B4B586029231B4AD35C532B1ED0184C54
S1134A90194F6068B84702000B00184E2000083018
S1134AA03100174DA8472068B84702000B002000CA
S1134AB018303100A84702B004BC9046F0BD8023F2
S1134AC01B069C4660440A4B1860A3E780231B0620
S1134AD09C466044064B5860D9E7C04625610000F7
S1134AE0955E000000401C46715B000000007042AF
S1134AF0A81600205C150020B5740000BCCB000093
S1134B007D7B0000F0B5D6464F4680B583B03D4B63
S1134B1098473D4B98473D4B98473D4C3D4A0021B3
S1134B2020003D4B98473D4920003D4B98472000CD
S1134B303C4B9847002353223B498B5401200E32AF
S1134B403A498854213A3A498B543A4F3A4C374EB1
S1134B503A4B113B019303E06023F356012B04D03D
S1134B60B8470128F8D1A047F6E7304B1B7E562BF7
S1134B7009D0412B2FD00120314B984700216023CD
S1134B802A4AD154ECE72F4B1B78012B0ED0274B2C
S1134B901B7E562BEFD1C025ED052A339A46AB6117
S1134BA01420294B984753466B61E4E70022254BB8
S1134BB01A701E4D00202856244B994698471C4BCA
S1134BC000201856C847184B00201856C8472B7E9B
S1134BD0412BDED106E01B4B1B78002B02D10122B6
S1134BE0184B1A70C025ED0540239A46AB6114207A
S1134BF0154B984753466B6110490198144B9847DD
S1134C00B9E7C04615010000E5450000E5150000C0
S1134C10CC140020B9100000551E0000C01500205F
S1134C20291E0000FD1D0000481600205C15002010
S1134C30C815002079160000A9160000861500206A
S1134C4081460000C013002041180000C914000070
S1134C508149000010B50B00002809D1110018008B
S1134C60054B9847002800DB10BD01204042FBE7BC
S1134C7001204042F8E7C046D14C000010B50B00BB
S1134C800138022809D811001800054B984700285C
S1134C9000DB10BD01204042FBE701204042F8E761
S1134CA0F54C000070B50600064D2B68986800218D
S1134CB0054CA0472B6858680021A047034B1E6091
S1134CC070BDC046B4000020C9790000C4130020A0
S1134CD010B50400054B1868002804D08AB22100DE
S1134CE0034B984710BD0020FCE7C046C4130020C6
S1134CF0F118000010B50400054B1868002804D012
S1134D008AB22100034B984710BD0020FCE7C0463F
S1134D10C4130020BD18000010B5044C2000044B3F
S1134D2098472000034B984710BDC046C01400208C
S1134D3079200000A54C0000F0B583B006000C00FB
S1134D4015000A7853069B0F012B00D06CE00979FB
S1134D5063791B020B433B490978994203D03949D3
S1134D604978994263D152B2002A0EDBA779E379DC
S1134D701B021F43344B98476378202B18D0222BF7
S1134D803CD00D20404203B0F0BD012D52D06378D9
S1134D90212B51D1A279E3791B021343072B4ED166
S1134DA000230722274908313000284CA047EAE7AE
S1134DB0072F34D1002D1AD0072201006846244B56
S1134DC09847204B1B69002B05D068469847030081
S1134DD00020002BD7D01B4A1300009991606A462B
S1134DE092889A816A4692799A730020CBE70023CD
S1134DF0072201003000154CA047C4E7002300221D
S1134E0000210020114DA8470E4B5B69002B09D0EF
S1134E10A278E0780002104398470020B3E701200D
S1134E204042B0E70020AEE70A204042ABE70A2048
S1134E304042A8E70020A6E70D204042A3E7012056
S1134E404042A0E7C813002009570000B9510000F0
S1134E50B1780000F0B5DE4657464E464546E0B50B
S1134E6083B01600012968D000290BD0022900D193
S1134E7093E00D20404203B03CBC90469946A246C4
S1134E80AB46F0BD836898461068002800D187E0DF
S1134E900193012343449B46474F484B99468278EC
S1134EA0437908218B43022B02D00A204042E2E7D7
S1134EB001998A460B789A4275D0FF2B76D10A70F5
S1134EC0052271683E4B9847041E1ED13068037852
S1134ED0C018042271683A4B9847019B5B4527D060
S1134EE0019B013301930028D9D10A204042C2E733
S1134EF053469D702800314B984734602078201821
S1134F007168304B9847041EE0D0A57863791B0282
S1134F102279D21892B2E1782800B847002848D103
S1134F206BB2002BE4DB43461D712800C847E4E75D
S1134F300122254B5A7100209DE78468002A08D07D
S1134F4013685B7908229343022B02D00A20404263
S1134F5091E72378FF2B08D0FF232370A078FF2844
S1134F6003D01A4B9847FF23A3706378FF2B08D014
S1134F70FF236370E078FF2803D0144B9847FF2386
S1134F80E3702079FF2803D0104B9847FF23237147
S1134F9000220D4B5A7100206DE71B2040426AE746
S1134FA00A20404267E71220404264E71C20404246
S1134FB061E7142040425EE7B92300004D2400005D
S1134FC0255700005B570000C8130020212400006F
S1134FD010B50A4B984701280CD80948094BC361FE
S1134FE000621830084B984708490120084B98473D
S1134FF0002010BD11204042FBE7C04615570000B9
S1135000C8130020554E0000AD5600004C0000208F
S11350101556000010B5064B1C69002C07D0002261
S113502001212000636898472468002CF7D110BD43
S1135030EC13002070B506000D00074BDC68002C53
S113504003D170BD2468002CFBD06368002BF9D019
S1135050290030009847F5E7EC130020F8B5070065
S11350600E0015000D4B9C68002C04D1002011E0AB
S11350702468002C0DD06368002BF9D02A0031007D
S113508038009847002806D00A30F1D00120404269
S113509000E00020F8BD0120FCE7C046EC1300202E
S11350A010B5064B5C68002C03D110BD2468002C9D
S11350B0FBD06368002BF9D09847F7E7EC13002086
S11350C010B51400002903D0012929D0002010BDF7
S11350D01378002BFAD15378052B11D0092BF5D175
S11350E09278124BDA76A378E178090219434B1EC1
S11350F0994103310D4B997601200D4B9847E5E713
S113510090780C4B9847A378E178090219434B1E19
S113511099410231054B99760120054B9847D5E713
S1135120012221000020044B9847CFE7EC13002014
S113513035500000AD2300005D50000010B50D4B4C
S113514098470D4C0223A3760023E376637700206F
S11351500A4B9847207F0A4B98470A4A00210020AF
S1135160094CA047094A02210020A0470020084B0F
S1135170984710BD15500000EC13002021240000B6
S11351800D240000D551000029260000C150000064
S11351904D24000010B5002802D0012804D010BD11
S11351A00020034B9847FAE7024B9847F7E7C046BD
S11351B0355000003D51000010B584B001AC0191A0
S11351C00292207263722000014B984704B010BD14
S11351D099240000F0B5C64600B584B005000C0063
S11351E00022B54B9847431C0DD0012301280BD056
S11351F022781F23110099430BD0CBB2802B00D10E
S1135200F8E0002300E00023180004B004BC90463A
S1135210F0BD63780B2B00D9E4E19B00A749CB5880
S11352209F460123002200212800A54CA0474342A9
S11352304341DBB2E8E7A278002A1AD0A14B1B68ED
S113524059681868A04B9847002800D1D4E1C37866
S11352501B028178C91889B24118039104229B4B1F
S113526098470290002806D0FF24964F974B984603
S11352701AE0974B98470123002200212800904C04
S1135280A04743424341DBB2BEE7340000E03400B0
S113529002980378C0180290039B0193042219001A
S11352A0C04702900028E6D08678A642F0D03C6938
S11352B0002CEAD002AA0021200063689847002845
S11352C0E5D02468002CF5D13400E1E71F231A400F
S11352D00023022A98D1A379E27912021A43002307
S11352E0002A00D090E7207900217A4B98470123C7
S11352F0002200212800724CA047012384E71F23C9
S11353001A400023022A00D07EE7A379E279120230
S11353101A430023002A00D076E7207901216D4B3F
S113532098470123002200212800654CA04701234F
S11353306AE7A378E5782D021D4323796479240272
S11353401C43604A1368D27E596818685E4B9847BC
S1135350002847D00290C3781B028178C91889B20B
S1135360411803910422594B984700283CD0574ECA
S113537008E002980378C018029004220399B04709
S1135380002833D08378A342F3D1C378AB42F0D161
S113539002904C4B1E69002E2AD002AA0121300033
S11353A073689847002804D03668002EF5D100238E
S11353B02AE7736802AA00213000984700230028D6
S11353C000D021E7002D05D03E490122A2404B7FA9
S11353D013434B770023002200210020384CA047C0
S11353E0012311E700230FE700230DE700230BE758
S11353F0002309E76378062B33D0D9B2062922D9D2
S1135400082B00D1AFE00A2B00D0EDE02D4B5A7FE2
S1135410217963791B020B431A41D30700D4CAE0F4
S1135420284B1D690023002D00D1EDE62200022146
S113543028006B689847002800DBC8E02D68002D21
S1135440F4D10023E0E6002B00D0CDE01F231A4066
S1135450D3B2012B00D892E0022A00D19FE00023AE
S1135460D2E6A378E27812021A43130A022B33D04D
S1135470032B56D0012B01D00023C5E6A279E37992
S11354801B0213431A1C122B00D9122294B20D4B87
S11354901B685968186801220C4B9847002800D1F2
S11354A0A4E00023220001002800054CA047434249
S11354B04341DBB2A8E6C0465D500000C4CB000007
S11354C0B9510000EC130020A1570000255700003B
S11354D015500000C1250000A379E67936021E4369
S11354E0464B1F7F1B680132D2B259681868444B7F
S11354F09847011E7CD0C3781B028478E418A4B2B8
S11355000023A64205D9013F3E4073427341DBB2FA
S11355102600320028003B4CA04743424341DBB203
S113552072E6A379E179090219430C00334B1E7F1B
S11355301B68D2B259681868334B9847011E59D07A
S113554002780023944206D9731E23401800434274
S11355504341DBB21400220028002A4CA0474342F6
S11355604341DBB250E6254BDA7E59690A7059692A
S1135570002301222800234CA047012344E60023F2
S113558002931E4C022202A96069204B984761696C
S11355900023022228001B4CA047012334E6207973
S11355A002211B4B9847002803DB0123184002907B
S11355B0E7E7002328E6114B002259690A7059696C
S11355C00023013200200F4CA04701231CE60B4BA3
S11355D05A6910705969002301220020094CA04720
S11355E0012311E600230FE600230DE600230BE65A
S11355F0002309E6002307E6002305E6EC13002058
S1135600A1570000B951000009580000B17800000A
S1135610C125000010B5012809D0002802D00228B5
S11356200AD010BD07480430074B9847F9E70548EE
S11356300830054B9847F4E702480C30024B984772
S1135640EFE7C046EC130020D926000070B5040033
S1135650431E9841C0B20C4A0C490D4B98470D4B60
S1135660984700280EDB0C4D2022002128000B4B0C
S113567098476C610A4900200A4CA0470A49012056
S1135680A047002070BDC04655030000F4CB0000C5
S11356907926000015230000EC1300203579000062
S11356A0A1500000892300009551000010B50100AD
S11356B002481030024B984710BDC046EC1300203E
S11356C0D926000010B50B4B9B7E002B0CD1002873
S11356D00DD0084B18600268D2791A7701229A76A5
S11356E0054B9847002010BD04204042FBE70920E9
S11356F04042F8E7EC1300209523000010B5014B5D
S1135700984710BDA1230000014B58697047C0465B
S1135710EC130020024B987EC30600D5102070477E
S1135720EC13002010B5884211D20378012B10D954
S1135730447894420AD0C018814206D90378012BD8
S113574009D944789442F6D100E0002010BD00202D
S1135750FCE70020FAE70020F8E7884215D2037836
S1135760012B14D94278042A13D0052A0CD0C0186E
S1135770814208D90378012B0DD94278042A0CD030
S1135780052AF4D100E0002070470020FCE7002047
S1135790FAE70020F8E70020F6E70020F4E700002D
S11357A070B50C0015000222164B984700281DD036
S11357B084421CD90378012B1BD94378022B1AD1BC
S11357C04379AB4212D0C278120283789B189BB201
S11357D0C018844209D90378012B0ED94378022BCF
S11357E00DD14379AB42EED100E0002070BD002022
S11357F0FCE70020FAE70020F8E70020F6E70020A5
S1135800F4E7C04625570000F8B50D00170088429C
S113581012D200240A4E03222900B04700280ED0D9
S11358200378012B0AD9A74209D00134E4B2C01885
S11358308542F0D8002002E0002000E00020F8BDFE
S11358402557000010B506484030064B9847064BD4
S113585098470648064B9847064B984710BDC046E4
S11358600C1400204D560000D14F000054000020BD
S1135870C5560000FD56000010B5014B984710BDF9
S113588045580000002243088B4274D303098B421D
S11358905FD3030A8B4244D3030B8B4228D3030CFC
S11358A08B420DD3FF22090212BA030C8B4202D39E
S11358B01212090265D0030B8B4219D300E0090AC6
S11358C0C30B8B4201D3CB03C01A5241830B8B42CF
S11358D001D38B03C01A5241430B8B4201D34B03B8
S11358E0C01A5241030B8B4201D30B03C01A52411D
S11358F0C30A8B4201D3CB02C01A5241830A8B42A2
S113590001D38B02C01A5241430A8B4201D34B028A
S1135910C01A5241030A8B4201D30B02C01A5241EE
S1135920CDD2C3098B4201D3CB01C01A52418309A2
S11359308B4201D38B01C01A524143098B4201D3DC
S11359404B01C01A524103098B4201D30B01C01A07
S11359505241C3088B4201D3CB00C01A5241830881
S11359608B4201D38B00C01A524143088B4201D3AE
S11359704B00C01A5241411A00D20146524110460E
S11359807047FFE701B5002000F006F802BDC046ED
S11359900029F7D076E770477047C046002B11D135
S11359A0002A0FD1002900D1002802D00021C943C8
S11359B0081C07B4024802A14018029003BDC04667
S11359C0D9FFFFFF03B4684601B5029800F010F850
S11359D0019B9E4602B00CBC7047C04610B5002324
S11359E0002802D001F020FE431C180010BDC04660
S11359F0F0B557464E464546DE46E0B5040083B052
S1135A000D00924699468B422FD82CD049465046D9
S1135A1001F0FEFD29000600200001F0F9FD331A13
S1135A209846203B9B4600D574E053465A46934023
S1135A301F005346424693401E00AF4229D826D049
S1135A405B46A41BBD41002B00DA79E00022002351
S1135A500092019301235A46934001930123424645
S1135A609340009319E08242D0D90022002300928F
S1135A7001930C9B002B01D01C605D600098019980
S1135A8003B03CBC90469946A246AB46F0BDA34247
S1135A90D6D900220023009201934346002BE8D07C
S1135AA0FB0772081A4346467B080EE0AB4201D15D
S1135AB0A2420CD8A41A9D41012024196D41002151
S1135AC0013E24184D41002E06D0AB42EED9013ED2
S1135AD024196D41002EF8D15B46009801990019F4
S1135AE06941002B22DB2B005A46D3402A0044464E
S1135AF0E2401C005B461500002B2CDB26009E4078
S1135B00330026004746BE403200801A9941009077
S1135B100191AEE7424620239B1A5246DA404146A1
S1135B2013004A468A4017001F4382E74246202357
S1135B309B1A2A0046469A402300F3401343D5E7B4
S1135B404246202300219B1A002200910192012247
S1135B50DA40019282E74246202326009B1ADE4067
S1135B602F00B446974066463B003343C9E7C0461E
S1135B70F0B5C6464E024702760A7B0A4400C50FBA
S1135B80F7004800984600B5240E2A00DB00000EFA
S1135B90C90FBC468D4267D0221A002A00DCA5E05A
S1135BA000283AD1002F00D193E0511E002900D0E3
S1135BB0BCE00124DB1B5A0146D59B019E09300041
S1135BC001F008FD05388640844200DD9DE0041B99
S1135BD0320020200134E240041BA64033005E1E44
S1135BE0B341002413435A0704D00F221A40042A55
S1135BF000D004335A0129D50134FF2C00D181E0AF
S1135C002A009B015B0AE4B25B02E405580AD2074E
S1135C102043104304BC9046F0BDFF2CE3D0802108
S1135C203800C904084384461B2A00DD82E0202092
S1135C306146D140821A604690400200501E824163
S1135C400A439B1A5A01B8D45A07CED1DE082A0057
S1135C50FF2C3AD1002E00D1AEE08023DB03334386
S1135C605B025B0AFF24CFE7211A002952DD0028DA
S1135C7031D0FF2CB7D080203E00C0040643B44688
S1135C801B2900DDAAE020266046C840711A66463A
S1135C908E4031004E1EB14101435B185901D3D5EA
S1135CA00134FF2C00D187E0012278491A405B08B7
S1135CB00B40134397E7002C00D0A7E0002B00D043
S1135CC0B6E03B1E62D10026002273025B0AE4B2F6
S1135CD09AE7140087E7002F4DD0481E002857D1BB
